{
  "_format": "hh-sol-artifact-1",
  "contractName": "Domains",
  "sourceName": "contracts/Domains.sol",
  "abi": [
    {
      "inputs": [
        {
          "internalType": "string",
          "name": "_tld",
          "type": "string"
        }
      ],
      "stateMutability": "nonpayable",
      "type": "constructor"
    },
    {
      "inputs": [
        {
          "internalType": "string",
          "name": "domainname",
          "type": "string"
        }
      ],
      "name": "AlreadyRegisteredError",
      "type": "error"
    },
    {
      "inputs": [
        {
          "internalType": "uint256",
          "name": "price",
          "type": "uint256"
        }
      ],
      "name": "InsufficientFundsError",
      "type": "error"
    },
    {
      "inputs": [
        {
          "internalType": "string",
          "name": "domainname",
          "type": "string"
        },
        {
          "internalType": "address",
          "name": "msgSender",
          "type": "address"
        }
      ],
      "name": "NotOwnerError",
      "type": "error"
    },
    {
      "anonymous": false,
      "inputs": [
        {
          "indexed": true,
          "internalType": "address",
          "name": "owner",
          "type": "address"
        },
        {
          "indexed": true,
          "internalType": "address",
          "name": "approved",
          "type": "address"
        },
        {
          "indexed": true,
          "internalType": "uint256",
          "name": "tokenId",
          "type": "uint256"
        }
      ],
      "name": "Approval",
      "type": "event"
    },
    {
      "anonymous": false,
      "inputs": [
        {
          "indexed": true,
          "internalType": "address",
          "name": "owner",
          "type": "address"
        },
        {
          "indexed": true,
          "internalType": "address",
          "name": "operator",
          "type": "address"
        },
        {
          "indexed": false,
          "internalType": "bool",
          "name": "approved",
          "type": "bool"
        }
      ],
      "name": "ApprovalForAll",
      "type": "event"
    },
    {
      "anonymous": false,
      "inputs": [
        {
          "indexed": true,
          "internalType": "address",
          "name": "previousOwner",
          "type": "address"
        },
        {
          "indexed": true,
          "internalType": "address",
          "name": "newOwner",
          "type": "address"
        }
      ],
      "name": "OwnershipTransferred",
      "type": "event"
    },
    {
      "anonymous": false,
      "inputs": [
        {
          "indexed": true,
          "internalType": "address",
          "name": "from",
          "type": "address"
        },
        {
          "indexed": true,
          "internalType": "address",
          "name": "to",
          "type": "address"
        },
        {
          "indexed": true,
          "internalType": "uint256",
          "name": "tokenId",
          "type": "uint256"
        }
      ],
      "name": "Transfer",
      "type": "event"
    },
    {
      "inputs": [
        {
          "internalType": "address",
          "name": "to",
          "type": "address"
        },
        {
          "internalType": "uint256",
          "name": "tokenId",
          "type": "uint256"
        }
      ],
      "name": "approve",
      "outputs": [],
      "stateMutability": "nonpayable",
      "type": "function"
    },
    {
      "inputs": [
        {
          "internalType": "address",
          "name": "owner",
          "type": "address"
        }
      ],
      "name": "balanceOf",
      "outputs": [
        {
          "internalType": "uint256",
          "name": "",
          "type": "uint256"
        }
      ],
      "stateMutability": "view",
      "type": "function"
    },
    {
      "inputs": [
        {
          "internalType": "string",
          "name": "",
          "type": "string"
        }
      ],
      "name": "domains",
      "outputs": [
        {
          "internalType": "address",
          "name": "",
          "type": "address"
        }
      ],
      "stateMutability": "view",
      "type": "function"
    },
    {
      "inputs": [
        {
          "internalType": "string",
          "name": "domainname",
          "type": "string"
        }
      ],
      "name": "getAddress",
      "outputs": [
        {
          "internalType": "address",
          "name": "",
          "type": "address"
        }
      ],
      "stateMutability": "view",
      "type": "function"
    },
    {
      "inputs": [],
      "name": "getAllNames",
      "outputs": [
        {
          "internalType": "string[]",
          "name": "",
          "type": "string[]"
        }
      ],
      "stateMutability": "view",
      "type": "function"
    },
    {
      "inputs": [
        {
          "internalType": "uint256",
          "name": "tokenId",
          "type": "uint256"
        }
      ],
      "name": "getApproved",
      "outputs": [
        {
          "internalType": "address",
          "name": "",
          "type": "address"
        }
      ],
      "stateMutability": "view",
      "type": "function"
    },
    {
      "inputs": [
        {
          "internalType": "string",
          "name": "domainname",
          "type": "string"
        }
      ],
      "name": "getRecord",
      "outputs": [
        {
          "internalType": "string",
          "name": "",
          "type": "string"
        }
      ],
      "stateMutability": "view",
      "type": "function"
    },
    {
      "inputs": [
        {
          "internalType": "address",
          "name": "owner",
          "type": "address"
        },
        {
          "internalType": "address",
          "name": "operator",
          "type": "address"
        }
      ],
      "name": "isApprovedForAll",
      "outputs": [
        {
          "internalType": "bool",
          "name": "",
          "type": "bool"
        }
      ],
      "stateMutability": "view",
      "type": "function"
    },
    {
      "inputs": [],
      "name": "name",
      "outputs": [
        {
          "internalType": "string",
          "name": "",
          "type": "string"
        }
      ],
      "stateMutability": "view",
      "type": "function"
    },
    {
      "inputs": [
        {
          "internalType": "uint256",
          "name": "",
          "type": "uint256"
        }
      ],
      "name": "names",
      "outputs": [
        {
          "internalType": "string",
          "name": "",
          "type": "string"
        }
      ],
      "stateMutability": "view",
      "type": "function"
    },
    {
      "inputs": [],
      "name": "owner",
      "outputs": [
        {
          "internalType": "address",
          "name": "",
          "type": "address"
        }
      ],
      "stateMutability": "view",
      "type": "function"
    },
    {
      "inputs": [
        {
          "internalType": "uint256",
          "name": "tokenId",
          "type": "uint256"
        }
      ],
      "name": "ownerOf",
      "outputs": [
        {
          "internalType": "address",
          "name": "",
          "type": "address"
        }
      ],
      "stateMutability": "view",
      "type": "function"
    },
    {
      "inputs": [
        {
          "internalType": "string",
          "name": "name",
          "type": "string"
        }
      ],
      "name": "price",
      "outputs": [
        {
          "internalType": "uint256",
          "name": "",
          "type": "uint256"
        }
      ],
      "stateMutability": "pure",
      "type": "function"
    },
    {
      "inputs": [
        {
          "internalType": "string",
          "name": "",
          "type": "string"
        }
      ],
      "name": "records",
      "outputs": [
        {
          "internalType": "string",
          "name": "",
          "type": "string"
        }
      ],
      "stateMutability": "view",
      "type": "function"
    },
    {
      "inputs": [
        {
          "internalType": "string",
          "name": "name",
          "type": "string"
        }
      ],
      "name": "register",
      "outputs": [],
      "stateMutability": "payable",
      "type": "function"
    },
    {
      "inputs": [],
      "name": "renounceOwnership",
      "outputs": [],
      "stateMutability": "nonpayable",
      "type": "function"
    },
    {
      "inputs": [
        {
          "internalType": "address",
          "name": "from",
          "type": "address"
        },
        {
          "internalType": "address",
          "name": "to",
          "type": "address"
        },
        {
          "internalType": "uint256",
          "name": "tokenId",
          "type": "uint256"
        }
      ],
      "name": "safeTransferFrom",
      "outputs": [],
      "stateMutability": "nonpayable",
      "type": "function"
    },
    {
      "inputs": [
        {
          "internalType": "address",
          "name": "from",
          "type": "address"
        },
        {
          "internalType": "address",
          "name": "to",
          "type": "address"
        },
        {
          "internalType": "uint256",
          "name": "tokenId",
          "type": "uint256"
        },
        {
          "internalType": "bytes",
          "name": "_data",
          "type": "bytes"
        }
      ],
      "name": "safeTransferFrom",
      "outputs": [],
      "stateMutability": "nonpayable",
      "type": "function"
    },
    {
      "inputs": [
        {
          "internalType": "address",
          "name": "operator",
          "type": "address"
        },
        {
          "internalType": "bool",
          "name": "approved",
          "type": "bool"
        }
      ],
      "name": "setApprovalForAll",
      "outputs": [],
      "stateMutability": "nonpayable",
      "type": "function"
    },
    {
      "inputs": [
        {
          "internalType": "string",
          "name": "domainname",
          "type": "string"
        },
        {
          "internalType": "string",
          "name": "record",
          "type": "string"
        }
      ],
      "name": "setRecord",
      "outputs": [],
      "stateMutability": "nonpayable",
      "type": "function"
    },
    {
      "inputs": [
        {
          "internalType": "bytes4",
          "name": "interfaceId",
          "type": "bytes4"
        }
      ],
      "name": "supportsInterface",
      "outputs": [
        {
          "internalType": "bool",
          "name": "",
          "type": "bool"
        }
      ],
      "stateMutability": "view",
      "type": "function"
    },
    {
      "inputs": [],
      "name": "symbol",
      "outputs": [
        {
          "internalType": "string",
          "name": "",
          "type": "string"
        }
      ],
      "stateMutability": "view",
      "type": "function"
    },
    {
      "inputs": [],
      "name": "tld",
      "outputs": [
        {
          "internalType": "string",
          "name": "",
          "type": "string"
        }
      ],
      "stateMutability": "view",
      "type": "function"
    },
    {
      "inputs": [
        {
          "internalType": "uint256",
          "name": "tokenId",
          "type": "uint256"
        }
      ],
      "name": "tokenURI",
      "outputs": [
        {
          "internalType": "string",
          "name": "",
          "type": "string"
        }
      ],
      "stateMutability": "view",
      "type": "function"
    },
    {
      "inputs": [
        {
          "internalType": "address",
          "name": "from",
          "type": "address"
        },
        {
          "internalType": "address",
          "name": "to",
          "type": "address"
        },
        {
          "internalType": "uint256",
          "name": "tokenId",
          "type": "uint256"
        }
      ],
      "name": "transferFrom",
      "outputs": [],
      "stateMutability": "nonpayable",
      "type": "function"
    },
    {
      "inputs": [
        {
          "internalType": "address",
          "name": "newOwner",
          "type": "address"
        }
      ],
      "name": "transferOwnership",
      "outputs": [],
      "stateMutability": "nonpayable",
      "type": "function"
    },
    {
      "inputs": [
        {
          "internalType": "string",
          "name": "name",
          "type": "string"
        }
      ],
      "name": "valid",
      "outputs": [
        {
          "internalType": "bool",
          "name": "",
          "type": "bool"
        }
      ],
      "stateMutability": "pure",
      "type": "function"
    },
    {
      "inputs": [],
      "name": "withdraw",
      "outputs": [],
      "stateMutability": "nonpayable",
      "type": "function"
    }
  ],
  "bytecode": "0x608060405260405180610b600160405280610b26815260200162005770610b269139600990805190602001906200003892919062000383565b506040518060400160405280601581526020017f3c2f747370616e3e3c2f746578743e3c2f7376673e0000000000000000000000815250600a90805190602001906200008692919062000383565b503480156200009457600080fd5b5060405162006296380380620062968339818101604052810190620000ba9190620005d0565b6040518060400160405280601281526020017f466f637573204e616d65205365727669636500000000000000000000000000008152506040518060400160405280600381526020017f464e53000000000000000000000000000000000000000000000000000000000081525081600090805190602001906200013e92919062000383565b5080600190805190602001906200015792919062000383565b5050506200017a6200016e620001e660201b60201c565b620001ee60201b60201c565b80600e90805190602001906200019292919062000383565b50620001df6040518060400160405280601881526020017f2573206e616d652073657276696365206465706c6f796564000000000000000081525082620002b460201b62001d7a1760201c565b506200071d565b600033905090565b6000600760009054906101000a900473ffffffffffffffffffffffffffffffffffffffff16905081600760006101000a81548173ffffffffffffffffffffffffffffffffffffffff021916908373ffffffffffffffffffffffffffffffffffffffff1602179055508173ffffffffffffffffffffffffffffffffffffffff168173ffffffffffffffffffffffffffffffffffffffff167f8be0079c531659141344cd1fd0a4f28419497f9722a3daafe3b4186f6b6457e060405160405180910390a35050565b620003568282604051602401620002cd9291906200067e565b6040516020818303038152906040527f4b5c4277000000000000000000000000000000000000000000000000000000007bffffffffffffffffffffffffffffffffffffffffffffffffffffffff19166020820180517bffffffffffffffffffffffffffffffffffffffffffffffffffffffff83818316178352505050506200035a60201b60201c565b5050565b60008151905060006a636f6e736f6c652e6c6f679050602083016000808483855afa5050505050565b8280546200039190620006e8565b90600052602060002090601f016020900481019282620003b5576000855562000401565b82601f10620003d057805160ff191683800117855562000401565b8280016001018555821562000401579182015b8281111562000400578251825591602001919060010190620003e3565b5b50905062000410919062000414565b5090565b5b808211156200042f57600081600090555060010162000415565b5090565b6000604051905090565b600080fd5b600080fd5b600080fd5b600080fd5b6000601f19601f8301169050919050565b7f4e487b7100000000000000000000000000000000000000000000000000000000600052604160045260246000fd5b6200049c8262000451565b810181811067ffffffffffffffff82111715620004be57620004bd62000462565b5b80604052505050565b6000620004d362000433565b9050620004e1828262000491565b919050565b600067ffffffffffffffff82111562000504576200050362000462565b5b6200050f8262000451565b9050602081019050919050565b60005b838110156200053c5780820151818401526020810190506200051f565b838111156200054c576000848401525b50505050565b6000620005696200056384620004e6565b620004c7565b9050828152602081018484840111156200058857620005876200044c565b5b620005958482856200051c565b509392505050565b600082601f830112620005b557620005b462000447565b5b8151620005c784826020860162000552565b91505092915050565b600060208284031215620005e957620005e86200043d565b5b600082015167ffffffffffffffff8111156200060a576200060962000442565b5b62000618848285016200059d565b91505092915050565b600081519050919050565b600082825260208201905092915050565b60006200064a8262000621565b6200065681856200062c565b9350620006688185602086016200051c565b620006738162000451565b840191505092915050565b600060408201905081810360008301526200069a81856200063d565b90508181036020830152620006b081846200063d565b90509392505050565b7f4e487b7100000000000000000000000000000000000000000000000000000000600052602260045260246000fd5b600060028204905060018216806200070157607f821691505b602082108103620007175762000716620006b9565b5b50919050565b615043806200072d6000396000f3fe6080604052600436106101b75760003560e01c8063715018a6116100ec578063c1880a981161008a578063f2c298be11610064578063f2c298be14610668578063f2fde38b14610684578063fb825e5f146106ad578063fe2c6198146106d8576101b7565b8063c1880a98146105c5578063c87b56dd146105ee578063e985e9c51461062b576101b7565b80639791c097116100c65780639791c097146104f9578063a22cb46514610536578063b88d4fde1461055f578063bf40fac114610588576101b7565b8063715018a61461048c5780638da5cb5b146104a357806395d89b41146104ce576101b7565b80632d551432116101595780634622ab03116101335780634622ab0314610398578063541e771d146103d55780636352211e1461041257806370a082311461044f576101b7565b80632d5514321461032d5780633ccfd60b1461035857806342842e0e1461036f576101b7565b8063095ea7b311610195578063095ea7b31461026157806311dd88451461028a57806323b872dd146102c757806326449235146102f0576101b7565b806301ffc9a7146101bc57806306fdde03146101f9578063081812fc14610224575b600080fd5b3480156101c857600080fd5b506101e360048036038101906101de91906133be565b610715565b6040516101f09190613406565b60405180910390f35b34801561020557600080fd5b5061020e6107f7565b60405161021b91906134ba565b60405180910390f35b34801561023057600080fd5b5061024b60048036038101906102469190613512565b610889565b6040516102589190613580565b60405180910390f35b34801561026d57600080fd5b50610288600480360381019061028391906135c7565b61090e565b005b34801561029657600080fd5b506102b160048036038101906102ac919061366c565b610a25565b6040516102be91906134ba565b60405180910390f35b3480156102d357600080fd5b506102ee60048036038101906102e991906136b9565b610ad8565b005b3480156102fc57600080fd5b506103176004803603810190610312919061383c565b610b38565b6040516103249190613580565b60405180910390f35b34801561033957600080fd5b50610342610b81565b60405161034f91906134ba565b60405180910390f35b34801561036457600080fd5b5061036d610c0f565b005b34801561037b57600080fd5b50610396600480360381019061039191906136b9565b610cd4565b005b3480156103a457600080fd5b506103bf60048036038101906103ba9190613512565b610cf4565b6040516103cc91906134ba565b60405180910390f35b3480156103e157600080fd5b506103fc60048036038101906103f7919061383c565b610d94565b60405161040991906134ba565b60405180910390f35b34801561041e57600080fd5b5061043960048036038101906104349190613512565b610e4a565b6040516104469190613580565b60405180910390f35b34801561045b57600080fd5b5061047660048036038101906104719190613885565b610efb565b60405161048391906138c1565b60405180910390f35b34801561049857600080fd5b506104a1610fb2565b005b3480156104af57600080fd5b506104b861103a565b6040516104c59190613580565b60405180910390f35b3480156104da57600080fd5b506104e3611064565b6040516104f091906134ba565b60405180910390f35b34801561050557600080fd5b50610520600480360381019061051b919061366c565b6110f6565b60405161052d9190613406565b60405180910390f35b34801561054257600080fd5b5061055d60048036038101906105589190613908565b6111aa565b005b34801561056b57600080fd5b50610586600480360381019061058191906139e9565b6111c0565b005b34801561059457600080fd5b506105af60048036038101906105aa919061366c565b611222565b6040516105bc9190613580565b60405180910390f35b3480156105d157600080fd5b506105ec60048036038101906105e79190613a6c565b61126d565b005b3480156105fa57600080fd5b5061061560048036038101906106109190613512565b6113df565b60405161062291906134ba565b60405180910390f35b34801561063757600080fd5b50610652600480360381019061064d9190613aed565b611530565b60405161065f9190613406565b60405180910390f35b610682600480360381019061067d919061366c565b6115c4565b005b34801561069057600080fd5b506106ab60048036038101906106a69190613885565b611a04565b005b3480156106b957600080fd5b506106c2611afb565b6040516106cf9190613c39565b60405180910390f35b3480156106e457600080fd5b506106ff60048036038101906106fa919061366c565b611cd9565b60405161070c91906138c1565b60405180910390f35b60007f80ac58cd000000000000000000000000000000000000000000000000000000007bffffffffffffffffffffffffffffffffffffffffffffffffffffffff1916827bffffffffffffffffffffffffffffffffffffffffffffffffffffffff191614806107e057507f5b5e139f000000000000000000000000000000000000000000000000000000007bffffffffffffffffffffffffffffffffffffffffffffffffffffffff1916827bffffffffffffffffffffffffffffffffffffffffffffffffffffffff1916145b806107f057506107ef82611e16565b5b9050919050565b60606000805461080690613c8a565b80601f016020809104026020016040519081016040528092919081815260200182805461083290613c8a565b801561087f5780601f106108545761010080835404028352916020019161087f565b820191906000526020600020905b81548152906001019060200180831161086257829003601f168201915b5050505050905090565b600061089482611e80565b6108d3576040517f08c379a00000000000000000000000000000000000000000000000000000000081526004016108ca90613d2d565b60405180910390fd5b6004600083815260200190815260200160002060009054906101000a900473ffffffffffffffffffffffffffffffffffffffff169050919050565b600061091982610e4a565b90508073ffffffffffffffffffffffffffffffffffffffff168373ffffffffffffffffffffffffffffffffffffffff1603610989576040517f08c379a000000000000000000000000000000000000000000000000000000000815260040161098090613dbf565b60405180910390fd5b8073ffffffffffffffffffffffffffffffffffffffff166109a8611eec565b73ffffffffffffffffffffffffffffffffffffffff1614806109d757506109d6816109d1611eec565b611530565b5b610a16576040517f08c379a0000000000000000000000000000000000000000000000000000000008152600401610a0d90613e51565b60405180910390fd5b610a208383611ef4565b505050565b6060600c8383604051610a39929190613ea1565b90815260200160405180910390208054610a5290613c8a565b80601f0160208091040260200160405190810160405280929190818152602001828054610a7e90613c8a565b8015610acb5780601f10610aa057610100808354040283529160200191610acb565b820191906000526020600020905b815481529060010190602001808311610aae57829003601f168201915b5050505050905092915050565b610ae9610ae3611eec565b82611fad565b610b28576040517f08c379a0000000000000000000000000000000000000000000000000000000008152600401610b1f90613f2c565b60405180910390fd5b610b3383838361208b565b505050565b600b818051602081018201805184825260208301602085012081835280955050505050506000915054906101000a900473ffffffffffffffffffffffffffffffffffffffff1681565b600e8054610b8e90613c8a565b80601f0160208091040260200160405190810160405280929190818152602001828054610bba90613c8a565b8015610c075780601f10610bdc57610100808354040283529160200191610c07565b820191906000526020600020905b815481529060010190602001808311610bea57829003601f168201915b505050505081565b610c17611eec565b73ffffffffffffffffffffffffffffffffffffffff16610c3561103a565b73ffffffffffffffffffffffffffffffffffffffff1614610c8b576040517f08c379a0000000000000000000000000000000000000000000000000000000008152600401610c8290613f98565b60405180910390fd5b3373ffffffffffffffffffffffffffffffffffffffff166108fc479081150290604051600060405180830381858888f19350505050158015610cd1573d6000803e3d6000fd5b50565b610cef838383604051806020016040528060008152506111c0565b505050565b600d6020528060005260406000206000915090508054610d1390613c8a565b80601f0160208091040260200160405190810160405280929190818152602001828054610d3f90613c8a565b8015610d8c5780601f10610d6157610100808354040283529160200191610d8c565b820191906000526020600020905b815481529060010190602001808311610d6f57829003601f168201915b505050505081565b600c818051602081018201805184825260208301602085012081835280955050505050506000915090508054610dc990613c8a565b80601f0160208091040260200160405190810160405280929190818152602001828054610df590613c8a565b8015610e425780601f10610e1757610100808354040283529160200191610e42565b820191906000526020600020905b815481529060010190602001808311610e2557829003601f168201915b505050505081565b6000806002600084815260200190815260200160002060009054906101000a900473ffffffffffffffffffffffffffffffffffffffff169050600073ffffffffffffffffffffffffffffffffffffffff168173ffffffffffffffffffffffffffffffffffffffff1603610ef2576040517f08c379a0000000000000000000000000000000000000000000000000000000008152600401610ee99061402a565b60405180910390fd5b80915050919050565b60008073ffffffffffffffffffffffffffffffffffffffff168273ffffffffffffffffffffffffffffffffffffffff1603610f6b576040517f08c379a0000000000000000000000000000000000000000000000000000000008152600401610f62906140bc565b60405180910390fd5b600360008373ffffffffffffffffffffffffffffffffffffffff1673ffffffffffffffffffffffffffffffffffffffff168152602001908152602001600020549050919050565b610fba611eec565b73ffffffffffffffffffffffffffffffffffffffff16610fd861103a565b73ffffffffffffffffffffffffffffffffffffffff161461102e576040517f08c379a000000000000000000000000000000000000000000000000000000000815260040161102590613f98565b60405180910390fd5b61103860006122f1565b565b6000600760009054906101000a900473ffffffffffffffffffffffffffffffffffffffff16905090565b60606001805461107390613c8a565b80601f016020809104026020016040519081016040528092919081815260200182805461109f90613c8a565b80156110ec5780601f106110c1576101008083540402835291602001916110ec565b820191906000526020600020905b8154815290600101906020018083116110cf57829003601f168201915b5050505050905090565b6000600361114784848080601f016020809104026020016040519081016040528093929190818152602001838380828437600081840152601f19601f820116905080830192505050505050506123b7565b101580156111a25750600a61119f84848080601f016020809104026020016040519081016040528093929190818152602001838380828437600081840152601f19601f820116905080830192505050505050506123b7565b11155b905092915050565b6111bc6111b5611eec565b838361256c565b5050565b6111d16111cb611eec565b83611fad565b611210576040517f08c379a000000000000000000000000000000000000000000000000000000000815260040161120790613f2c565b60405180910390fd5b61121c848484846126d8565b50505050565b6000600b8383604051611236929190613ea1565b908152602001604051809103902060009054906101000a900473ffffffffffffffffffffffffffffffffffffffff16905092915050565b8383600b8282604051611281929190613ea1565b908152602001604051809103902060009054906101000a900473ffffffffffffffffffffffffffffffffffffffff1673ffffffffffffffffffffffffffffffffffffffff163373ffffffffffffffffffffffffffffffffffffffff1614611323578181336040517f1bd84fb000000000000000000000000000000000000000000000000000000000815260040161131a93929190614109565b60405180910390fd5b8383600c8888604051611337929190613ea1565b90815260200160405180910390209190611352929190613229565b506113d76040518060400160405280601c81526020017f2573206861732073657420746865207265636f726420666f72202573000000008152503388888080601f016020809104026020016040519081016040528093929190818152602001838380828437600081840152601f19601f82011690508083019250505050505050612734565b505050505050565b60606113ea82611e80565b611429576040517f08c379a0000000000000000000000000000000000000000000000000000000008152600401611420906141ad565b60405180910390fd5b600060066000848152602001908152602001600020805461144990613c8a565b80601f016020809104026020016040519081016040528092919081815260200182805461147590613c8a565b80156114c25780601f10611497576101008083540402835291602001916114c2565b820191906000526020600020905b8154815290600101906020018083116114a557829003601f168201915b5050505050905060006114d36127d3565b905060008151036114e857819250505061152b565b60008251111561151d5780826040516020016115059291906141fe565b6040516020818303038152906040529250505061152b565b611526846127ea565b925050505b919050565b6000600560008473ffffffffffffffffffffffffffffffffffffffff1673ffffffffffffffffffffffffffffffffffffffff16815260200190815260200160002060008373ffffffffffffffffffffffffffffffffffffffff1673ffffffffffffffffffffffffffffffffffffffff16815260200190815260200160002060009054906101000a900460ff16905092915050565b600073ffffffffffffffffffffffffffffffffffffffff16600b83836040516115ee929190613ea1565b908152602001604051809103902060009054906101000a900473ffffffffffffffffffffffffffffffffffffffff1673ffffffffffffffffffffffffffffffffffffffff16146116775781816040517f80f2449900000000000000000000000000000000000000000000000000000000815260040161166e929190614222565b60405180910390fd5b60006116838383611cd9565b9050803410156116ca57806040517f09c2cfd70000000000000000000000000000000000000000000000000000000081526004016116c191906138c1565b60405180910390fd5b60008383600e6040516020016116e293929190614326565b60405160208183030381529060405290506000600982600a60405160200161170c93929190614357565b604051602081830303815290604052905060006117296008612891565b9050600061177a87878080601f016020809104026020016040519081016040528093929190818152602001838380828437600081840152601f19601f820116905080830192505050505050506123b7565b905060006117878261289f565b905061187b604051806060016040528060318152602001614f646031913989898080601f016020809104026020016040519081016040528093929190818152602001838380828437600081840152601f19601f82011690508083019250505050505050600e80546117f790613c8a565b80601f016020809104026020016040519081016040528092919081815260200182805461182390613c8a565b80156118705780601f1061184557610100808354040283529160200191611870565b820191906000526020600020905b81548152906001019060200180831161185357829003601f168201915b5050505050866129ff565b60006118b18661188a87612aa1565b8460405160200161189d93929190614504565b604051602081830303815290604052612aa1565b90506000816040516020016118c691906145ad565b60405160208183030381529060405290506118f8604051806060016040528060398152602001614f2b60399139612c38565b6119376040518060400160405280600e81526020017f46696e616c20746f6b656e55524900000000000000000000000000000000000081525082611d7a565b611958604051806060016040528060398152602001614f9560399139612c38565b6119623386612cd1565b61196c8582612cef565b33600b8b8b60405161197f929190613ea1565b908152602001604051809103902060006101000a81548173ffffffffffffffffffffffffffffffffffffffff021916908373ffffffffffffffffffffffffffffffffffffffff1602179055508989600d600088815260200190815260200160002091906119ed929190613229565b506119f86008612d63565b50505050505050505050565b611a0c611eec565b73ffffffffffffffffffffffffffffffffffffffff16611a2a61103a565b73ffffffffffffffffffffffffffffffffffffffff1614611a80576040517f08c379a0000000000000000000000000000000000000000000000000000000008152600401611a7790613f98565b60405180910390fd5b600073ffffffffffffffffffffffffffffffffffffffff168173ffffffffffffffffffffffffffffffffffffffff1603611aef576040517f08c379a0000000000000000000000000000000000000000000000000000000008152600401611ae690614641565b60405180910390fd5b611af8816122f1565b50565b6060611b3b6040518060400160405280601f81526020017f47657474696e6720616c6c206e616d65732066726f6d20636f6e747261637400815250612c38565b6000611b476008612891565b67ffffffffffffffff811115611b6057611b5f613711565b5b604051908082528060200260200182016040528015611b9357816020015b6060815260200190600190039081611b7e5790505b50905060005b611ba36008612891565b811015611cd157600d60008281526020019081526020016000208054611bc890613c8a565b80601f0160208091040260200160405190810160405280929190818152602001828054611bf490613c8a565b8015611c415780601f10611c1657610100808354040283529160200191611c41565b820191906000526020600020905b815481529060010190602001808311611c2457829003601f168201915b5050505050828281518110611c5957611c58614661565b5b6020026020010181905250611cbe6040518060400160405280601781526020017f4e616d6520666f7220746f6b656e20256420697320257300000000000000000081525082848481518110611cb157611cb0614661565b5b6020026020010151612d79565b8080611cc9906146bf565b915050611b99565b508091505090565b600080611d2984848080601f016020809104026020016040519081016040528093929190818152602001838380828437600081840152601f19601f820116905080830192505050505050506123b7565b905060008111611d3857600080fd5b60038103611d50576611c37937e08000915050611d74565b60048103611d6857660aa87bee538000915050611d74565b66038d7ea4c680009150505b92915050565b611e128282604051602401611d90929190614707565b6040516020818303038152906040527f4b5c4277000000000000000000000000000000000000000000000000000000007bffffffffffffffffffffffffffffffffffffffffffffffffffffffff19166020820180517bffffffffffffffffffffffffffffffffffffffffffffffffffffffff8381831617835250505050612e18565b5050565b60007f01ffc9a7000000000000000000000000000000000000000000000000000000007bffffffffffffffffffffffffffffffffffffffffffffffffffffffff1916827bffffffffffffffffffffffffffffffffffffffffffffffffffffffff1916149050919050565b60008073ffffffffffffffffffffffffffffffffffffffff166002600084815260200190815260200160002060009054906101000a900473ffffffffffffffffffffffffffffffffffffffff1673ffffffffffffffffffffffffffffffffffffffff1614159050919050565b600033905090565b816004600083815260200190815260200160002060006101000a81548173ffffffffffffffffffffffffffffffffffffffff021916908373ffffffffffffffffffffffffffffffffffffffff160217905550808273ffffffffffffffffffffffffffffffffffffffff16611f6783610e4a565b73ffffffffffffffffffffffffffffffffffffffff167f8c5be1e5ebec7d5bd14f71427d1e84f3dd0314c0f7b2291e5b200ac8c7c3b92560405160405180910390a45050565b6000611fb882611e80565b611ff7576040517f08c379a0000000000000000000000000000000000000000000000000000000008152600401611fee906147b0565b60405180910390fd5b600061200283610e4a565b90508073ffffffffffffffffffffffffffffffffffffffff168473ffffffffffffffffffffffffffffffffffffffff16148061204457506120438185611530565b5b8061208257508373ffffffffffffffffffffffffffffffffffffffff1661206a84610889565b73ffffffffffffffffffffffffffffffffffffffff16145b91505092915050565b8273ffffffffffffffffffffffffffffffffffffffff166120ab82610e4a565b73ffffffffffffffffffffffffffffffffffffffff1614612101576040517f08c379a00000000000000000000000000000000000000000000000000000000081526004016120f890614842565b60405180910390fd5b600073ffffffffffffffffffffffffffffffffffffffff168273ffffffffffffffffffffffffffffffffffffffff1603612170576040517f08c379a0000000000000000000000000000000000000000000000000000000008152600401612167906148d4565b60405180910390fd5b61217b838383612e41565b612186600082611ef4565b6001600360008573ffffffffffffffffffffffffffffffffffffffff1673ffffffffffffffffffffffffffffffffffffffff16815260200190815260200160002060008282546121d691906148f4565b925050819055506001600360008473ffffffffffffffffffffffffffffffffffffffff1673ffffffffffffffffffffffffffffffffffffffff168152602001908152602001600020600082825461222d9190614928565b92505081905550816002600083815260200190815260200160002060006101000a81548173ffffffffffffffffffffffffffffffffffffffff021916908373ffffffffffffffffffffffffffffffffffffffff160217905550808273ffffffffffffffffffffffffffffffffffffffff168473ffffffffffffffffffffffffffffffffffffffff167fddf252ad1be2c89b69c2b068fc378daa952ba7f163c4a11628f55a4df523b3ef60405160405180910390a46122ec838383612e46565b505050565b6000600760009054906101000a900473ffffffffffffffffffffffffffffffffffffffff16905081600760006101000a81548173ffffffffffffffffffffffffffffffffffffffff021916908373ffffffffffffffffffffffffffffffffffffffff1602179055508173ffffffffffffffffffffffffffffffffffffffff168173ffffffffffffffffffffffffffffffffffffffff167f8be0079c531659141344cd1fd0a4f28419497f9722a3daafe3b4186f6b6457e060405160405180910390a35050565b60008060008084519050600092505b808210156125615760008583815181106123e3576123e2614661565b5b602001015160f81c60f81b9050608060f81b817effffffffffffffffffffffffffffffffffffffffffffffffffffffffffffff191610156124325760018361242b9190614928565b925061254d565b60e060f81b817effffffffffffffffffffffffffffffffffffffffffffffffffffffffffffff191610156124745760028361246d9190614928565b925061254c565b60f060f81b817effffffffffffffffffffffffffffffffffffffffffffffffffffffffffffff191610156124b6576003836124af9190614928565b925061254b565b60f8801b817effffffffffffffffffffffffffffffffffffffffffffffffffffffffffffff191610156124f7576004836124f09190614928565b925061254a565b60fc60f81b817effffffffffffffffffffffffffffffffffffffffffffffffffffffffffffff19161015612539576005836125329190614928565b9250612549565b6006836125469190614928565b92505b5b5b5b5b508280612559906146bf565b9350506123c6565b829350505050919050565b8173ffffffffffffffffffffffffffffffffffffffff168373ffffffffffffffffffffffffffffffffffffffff16036125da576040517f08c379a00000000000000000000000000000000000000000000000000000000081526004016125d1906149ca565b60405180910390fd5b80600560008573ffffffffffffffffffffffffffffffffffffffff1673ffffffffffffffffffffffffffffffffffffffff16815260200190815260200160002060008473ffffffffffffffffffffffffffffffffffffffff1673ffffffffffffffffffffffffffffffffffffffff16815260200190815260200160002060006101000a81548160ff0219169083151502179055508173ffffffffffffffffffffffffffffffffffffffff168373ffffffffffffffffffffffffffffffffffffffff167f17307eab39ab6107e8899845ad3d59bd9653f200f220920489ca2b5937696c31836040516126cb9190613406565b60405180910390a3505050565b6126e384848461208b565b6126ef84848484612e4b565b61272e576040517f08c379a000000000000000000000000000000000000000000000000000000000815260040161272590614a5c565b60405180910390fd5b50505050565b6127ce83838360405160240161274c93929190614a7c565b6040516020818303038152906040527fe0e9ad4f000000000000000000000000000000000000000000000000000000007bffffffffffffffffffffffffffffffffffffffffffffffffffffffff19166020820180517bffffffffffffffffffffffffffffffffffffffffffffffffffffffff8381831617835250505050612e18565b505050565b606060405180602001604052806000815250905090565b60606127f582611e80565b612834576040517f08c379a000000000000000000000000000000000000000000000000000000000815260040161282b90614b33565b60405180910390fd5b600061283e6127d3565b9050600081511161285e5760405180602001604052806000815250612889565b806128688461289f565b6040516020016128799291906141fe565b6040516020818303038152906040525b915050919050565b600081600001549050919050565b6060600082036128e6576040518060400160405280600181526020017f300000000000000000000000000000000000000000000000000000000000000081525090506129fa565b600082905060005b60008214612918578080612901906146bf565b915050600a826129119190614b82565b91506128ee565b60008167ffffffffffffffff81111561293457612933613711565b5b6040519080825280601f01601f1916602001820160405280156129665781602001600182028036833780820191505090505b5090505b600085146129f35760018261297f91906148f4565b9150600a8561298e9190614bb3565b603061299a9190614928565b60f81b8183815181106129b0576129af614661565b5b60200101907effffffffffffffffffffffffffffffffffffffffffffffffffffffffffffff1916908160001a905350600a856129ec9190614b82565b945061296a565b8093505050505b919050565b612a9b84848484604051602401612a199493929190614be4565b6040516020818303038152906040527f9fd009f5000000000000000000000000000000000000000000000000000000007bffffffffffffffffffffffffffffffffffffffffffffffffffffffff19166020820180517bffffffffffffffffffffffffffffffffffffffffffffffffffffffff8381831617835250505050612e18565b50505050565b606060008251905060008103612ac95760405180602001604052806000815250915050612c33565b60006003600283612ada9190614928565b612ae49190614b82565b6004612af09190614c3e565b90506000602082612b019190614928565b67ffffffffffffffff811115612b1a57612b19613711565b5b6040519080825280601f01601f191660200182016040528015612b4c5781602001600182028036833780820191505090505b5090506000604051806060016040528060408152602001614fce604091399050600181016020830160005b86811015612bf05760038101905062ffffff818a015116603f8160121c168401518060081b905060ff603f83600c1c1686015116810190508060081b905060ff603f8360061c1686015116810190508060081b905060ff603f831686015116810190508060e01b90508084526004840193505050612b77565b506003860660018114612c0a5760028114612c1a57612c25565b613d3d60f01b6002830352612c25565b603d60f81b60018303525b508484525050819450505050505b919050565b612cce81604051602401612c4c91906134ba565b6040516020818303038152906040527f41304fac000000000000000000000000000000000000000000000000000000007bffffffffffffffffffffffffffffffffffffffffffffffffffffffff19166020820180517bffffffffffffffffffffffffffffffffffffffffffffffffffffffff8381831617835250505050612e18565b50565b612ceb828260405180602001604052806000815250612fd2565b5050565b612cf882611e80565b612d37576040517f08c379a0000000000000000000000000000000000000000000000000000000008152600401612d2e90614d0a565b60405180910390fd5b80600660008481526020019081526020016000209080519060200190612d5e9291906132af565b505050565b6001816000016000828254019250508190555050565b612e13838383604051602401612d9193929190614d2a565b6040516020818303038152906040527fa3f5c739000000000000000000000000000000000000000000000000000000007bffffffffffffffffffffffffffffffffffffffffffffffffffffffff19166020820180517bffffffffffffffffffffffffffffffffffffffffffffffffffffffff8381831617835250505050612e18565b505050565b60008151905060006a636f6e736f6c652e6c6f679050602083016000808483855afa5050505050565b505050565b505050565b6000612e6c8473ffffffffffffffffffffffffffffffffffffffff1661302d565b15612fc5578373ffffffffffffffffffffffffffffffffffffffff1663150b7a02612e95611eec565b8786866040518563ffffffff1660e01b8152600401612eb79493929190614dc4565b6020604051808303816000875af1925050508015612ef357506040513d601f19601f82011682018060405250810190612ef09190614e25565b60015b612f75573d8060008114612f23576040519150601f19603f3d011682016040523d82523d6000602084013e612f28565b606091505b506000815103612f6d576040517f08c379a0000000000000000000000000000000000000000000000000000000008152600401612f6490614a5c565b60405180910390fd5b805181602001fd5b63150b7a0260e01b7bffffffffffffffffffffffffffffffffffffffffffffffffffffffff1916817bffffffffffffffffffffffffffffffffffffffffffffffffffffffff191614915050612fca565b600190505b949350505050565b612fdc8383613050565b612fe96000848484612e4b565b613028576040517f08c379a000000000000000000000000000000000000000000000000000000000815260040161301f90614a5c565b60405180910390fd5b505050565b6000808273ffffffffffffffffffffffffffffffffffffffff163b119050919050565b600073ffffffffffffffffffffffffffffffffffffffff168273ffffffffffffffffffffffffffffffffffffffff16036130bf576040517f08c379a00000000000000000000000000000000000000000000000000000000081526004016130b690614e9e565b60405180910390fd5b6130c881611e80565b15613108576040517f08c379a00000000000000000000000000000000000000000000000000000000081526004016130ff90614f0a565b60405180910390fd5b61311460008383612e41565b6001600360008473ffffffffffffffffffffffffffffffffffffffff1673ffffffffffffffffffffffffffffffffffffffff16815260200190815260200160002060008282546131649190614928565b92505081905550816002600083815260200190815260200160002060006101000a81548173ffffffffffffffffffffffffffffffffffffffff021916908373ffffffffffffffffffffffffffffffffffffffff160217905550808273ffffffffffffffffffffffffffffffffffffffff16600073ffffffffffffffffffffffffffffffffffffffff167fddf252ad1be2c89b69c2b068fc378daa952ba7f163c4a11628f55a4df523b3ef60405160405180910390a461322560008383612e46565b5050565b82805461323590613c8a565b90600052602060002090601f016020900481019282613257576000855561329e565b82601f1061327057803560ff191683800117855561329e565b8280016001018555821561329e579182015b8281111561329d578235825591602001919060010190613282565b5b5090506132ab9190613335565b5090565b8280546132bb90613c8a565b90600052602060002090601f0160209004810192826132dd5760008555613324565b82601f106132f657805160ff1916838001178555613324565b82800160010185558215613324579182015b82811115613323578251825591602001919060010190613308565b5b5090506133319190613335565b5090565b5b8082111561334e576000816000905550600101613336565b5090565b6000604051905090565b600080fd5b600080fd5b60007fffffffff0000000000000000000000000000000000000000000000000000000082169050919050565b61339b81613366565b81146133a657600080fd5b50565b6000813590506133b881613392565b92915050565b6000602082840312156133d4576133d361335c565b5b60006133e2848285016133a9565b91505092915050565b60008115159050919050565b613400816133eb565b82525050565b600060208201905061341b60008301846133f7565b92915050565b600081519050919050565b600082825260208201905092915050565b60005b8381101561345b578082015181840152602081019050613440565b8381111561346a576000848401525b50505050565b6000601f19601f8301169050919050565b600061348c82613421565b613496818561342c565b93506134a681856020860161343d565b6134af81613470565b840191505092915050565b600060208201905081810360008301526134d48184613481565b905092915050565b6000819050919050565b6134ef816134dc565b81146134fa57600080fd5b50565b60008135905061350c816134e6565b92915050565b6000602082840312156135285761352761335c565b5b6000613536848285016134fd565b91505092915050565b600073ffffffffffffffffffffffffffffffffffffffff82169050919050565b600061356a8261353f565b9050919050565b61357a8161355f565b82525050565b60006020820190506135956000830184613571565b92915050565b6135a48161355f565b81146135af57600080fd5b50565b6000813590506135c18161359b565b92915050565b600080604083850312156135de576135dd61335c565b5b60006135ec858286016135b2565b92505060206135fd858286016134fd565b9150509250929050565b600080fd5b600080fd5b600080fd5b60008083601f84011261362c5761362b613607565b5b8235905067ffffffffffffffff8111156136495761364861360c565b5b60208301915083600182028301111561366557613664613611565b5b9250929050565b600080602083850312156136835761368261335c565b5b600083013567ffffffffffffffff8111156136a1576136a0613361565b5b6136ad85828601613616565b92509250509250929050565b6000806000606084860312156136d2576136d161335c565b5b60006136e0868287016135b2565b93505060206136f1868287016135b2565b9250506040613702868287016134fd565b9150509250925092565b600080fd5b7f4e487b7100000000000000000000000000000000000000000000000000000000600052604160045260246000fd5b61374982613470565b810181811067ffffffffffffffff8211171561376857613767613711565b5b80604052505050565b600061377b613352565b90506137878282613740565b919050565b600067ffffffffffffffff8211156137a7576137a6613711565b5b6137b082613470565b9050602081019050919050565b82818337600083830152505050565b60006137df6137da8461378c565b613771565b9050828152602081018484840111156137fb576137fa61370c565b5b6138068482856137bd565b509392505050565b600082601f83011261382357613822613607565b5b81356138338482602086016137cc565b91505092915050565b6000602082840312156138525761385161335c565b5b600082013567ffffffffffffffff8111156138705761386f613361565b5b61387c8482850161380e565b91505092915050565b60006020828403121561389b5761389a61335c565b5b60006138a9848285016135b2565b91505092915050565b6138bb816134dc565b82525050565b60006020820190506138d660008301846138b2565b92915050565b6138e5816133eb565b81146138f057600080fd5b50565b600081359050613902816138dc565b92915050565b6000806040838503121561391f5761391e61335c565b5b600061392d858286016135b2565b925050602061393e858286016138f3565b9150509250929050565b600067ffffffffffffffff82111561396357613962613711565b5b61396c82613470565b9050602081019050919050565b600061398c61398784613948565b613771565b9050828152602081018484840111156139a8576139a761370c565b5b6139b38482856137bd565b509392505050565b600082601f8301126139d0576139cf613607565b5b81356139e0848260208601613979565b91505092915050565b60008060008060808587031215613a0357613a0261335c565b5b6000613a11878288016135b2565b9450506020613a22878288016135b2565b9350506040613a33878288016134fd565b925050606085013567ffffffffffffffff811115613a5457613a53613361565b5b613a60878288016139bb565b91505092959194509250565b60008060008060408587031215613a8657613a8561335c565b5b600085013567ffffffffffffffff811115613aa457613aa3613361565b5b613ab087828801613616565b9450945050602085013567ffffffffffffffff811115613ad357613ad2613361565b5b613adf87828801613616565b925092505092959194509250565b60008060408385031215613b0457613b0361335c565b5b6000613b12858286016135b2565b9250506020613b23858286016135b2565b9150509250929050565b600081519050919050565b600082825260208201905092915050565b6000819050602082019050919050565b600082825260208201905092915050565b6000613b7582613421565b613b7f8185613b59565b9350613b8f81856020860161343d565b613b9881613470565b840191505092915050565b6000613baf8383613b6a565b905092915050565b6000602082019050919050565b6000613bcf82613b2d565b613bd98185613b38565b935083602082028501613beb85613b49565b8060005b85811015613c275784840389528151613c088582613ba3565b9450613c1383613bb7565b925060208a01995050600181019050613bef565b50829750879550505050505092915050565b60006020820190508181036000830152613c538184613bc4565b905092915050565b7f4e487b7100000000000000000000000000000000000000000000000000000000600052602260045260246000fd5b60006002820490506001821680613ca257607f821691505b602082108103613cb557613cb4613c5b565b5b50919050565b7f4552433732313a20617070726f76656420717565727920666f72206e6f6e657860008201527f697374656e7420746f6b656e0000000000000000000000000000000000000000602082015250565b6000613d17602c8361342c565b9150613d2282613cbb565b604082019050919050565b60006020820190508181036000830152613d4681613d0a565b9050919050565b7f4552433732313a20617070726f76616c20746f2063757272656e74206f776e6560008201527f7200000000000000000000000000000000000000000000000000000000000000602082015250565b6000613da960218361342c565b9150613db482613d4d565b604082019050919050565b60006020820190508181036000830152613dd881613d9c565b9050919050565b7f4552433732313a20617070726f76652063616c6c6572206973206e6f74206f7760008201527f6e6572206e6f7220617070726f76656420666f7220616c6c0000000000000000602082015250565b6000613e3b60388361342c565b9150613e4682613ddf565b604082019050919050565b60006020820190508181036000830152613e6a81613e2e565b9050919050565b600081905092915050565b6000613e888385613e71565b9350613e958385846137bd565b82840190509392505050565b6000613eae828486613e7c565b91508190509392505050565b7f4552433732313a207472616e736665722063616c6c6572206973206e6f74206f60008201527f776e6572206e6f7220617070726f766564000000000000000000000000000000602082015250565b6000613f1660318361342c565b9150613f2182613eba565b604082019050919050565b60006020820190508181036000830152613f4581613f09565b9050919050565b7f4f776e61626c653a2063616c6c6572206973206e6f7420746865206f776e6572600082015250565b6000613f8260208361342c565b9150613f8d82613f4c565b602082019050919050565b60006020820190508181036000830152613fb181613f75565b9050919050565b7f4552433732313a206f776e657220717565727920666f72206e6f6e657869737460008201527f656e7420746f6b656e0000000000000000000000000000000000000000000000602082015250565b600061401460298361342c565b915061401f82613fb8565b604082019050919050565b6000602082019050818103600083015261404381614007565b9050919050565b7f4552433732313a2062616c616e636520717565727920666f7220746865207a6560008201527f726f206164647265737300000000000000000000000000000000000000000000602082015250565b60006140a6602a8361342c565b91506140b18261404a565b604082019050919050565b600060208201905081810360008301526140d581614099565b9050919050565b60006140e8838561342c565b93506140f58385846137bd565b6140fe83613470565b840190509392505050565b600060408201905081810360008301526141248185876140dc565b90506141336020830184613571565b949350505050565b7f45524337323155524953746f726167653a2055524920717565727920666f722060008201527f6e6f6e6578697374656e7420746f6b656e000000000000000000000000000000602082015250565b600061419760318361342c565b91506141a28261413b565b604082019050919050565b600060208201905081810360008301526141c68161418a565b9050919050565b60006141d882613421565b6141e28185613e71565b93506141f281856020860161343d565b80840191505092915050565b600061420a82856141cd565b915061421682846141cd565b91508190509392505050565b6000602082019050818103600083015261423d8184866140dc565b90509392505050565b7f2e00000000000000000000000000000000000000000000000000000000000000600082015250565b600061427c600183613e71565b915061428782614246565b600182019050919050565b60008190508160005260206000209050919050565b600081546142b481613c8a565b6142be8186613e71565b945060018216600081146142d957600181146142ea5761431d565b60ff1983168652818601935061431d565b6142f385614292565b60005b83811015614315578154818901526001820191506020810190506142f6565b838801955050505b50505092915050565b6000614333828587613e7c565b915061433e8261426f565b915061434a82846142a7565b9150819050949350505050565b600061436382866142a7565b915061436f82856141cd565b915061437b82846142a7565b9150819050949350505050565b7f7b226e616d65223a202200000000000000000000000000000000000000000000600082015250565b60006143be600a83613e71565b91506143c982614388565b600a82019050919050565b7f222c20226465736372697074696f6e223a20224120646f6d61696e206f6e207460008201527f686520466f637573206e616d652073657276696365222c2022696d616765223a60208201527f2022646174613a696d6167652f7376672b786d6c3b6261736536342c00000000604082015250565b6000614456605c83613e71565b9150614461826143d4565b605c82019050919050565b7f222c226c656e677468223a220000000000000000000000000000000000000000600082015250565b60006144a2600c83613e71565b91506144ad8261446c565b600c82019050919050565b7f227d000000000000000000000000000000000000000000000000000000000000600082015250565b60006144ee600283613e71565b91506144f9826144b8565b600282019050919050565b600061450f826143b1565b915061451b82866141cd565b915061452682614449565b915061453282856141cd565b915061453d82614495565b915061454982846141cd565b9150614554826144e1565b9150819050949350505050565b7f646174613a6170706c69636174696f6e2f6a736f6e3b6261736536342c000000600082015250565b6000614597601d83613e71565b91506145a282614561565b601d82019050919050565b60006145b88261458a565b91506145c482846141cd565b915081905092915050565b7f4f776e61626c653a206e6577206f776e657220697320746865207a65726f206160008201527f6464726573730000000000000000000000000000000000000000000000000000602082015250565b600061462b60268361342c565b9150614636826145cf565b604082019050919050565b6000602082019050818103600083015261465a8161461e565b9050919050565b7f4e487b7100000000000000000000000000000000000000000000000000000000600052603260045260246000fd5b7f4e487b7100000000000000000000000000000000000000000000000000000000600052601160045260246000fd5b60006146ca826134dc565b91507fffffffffffffffffffffffffffffffffffffffffffffffffffffffffffffffff82036146fc576146fb614690565b5b600182019050919050565b600060408201905081810360008301526147218185613481565b905081810360208301526147358184613481565b90509392505050565b7f4552433732313a206f70657261746f7220717565727920666f72206e6f6e657860008201527f697374656e7420746f6b656e0000000000000000000000000000000000000000602082015250565b600061479a602c8361342c565b91506147a58261473e565b604082019050919050565b600060208201905081810360008301526147c98161478d565b9050919050565b7f4552433732313a207472616e736665722066726f6d20696e636f72726563742060008201527f6f776e6572000000000000000000000000000000000000000000000000000000602082015250565b600061482c60258361342c565b9150614837826147d0565b604082019050919050565b6000602082019050818103600083015261485b8161481f565b9050919050565b7f4552433732313a207472616e7366657220746f20746865207a65726f2061646460008201527f7265737300000000000000000000000000000000000000000000000000000000602082015250565b60006148be60248361342c565b91506148c982614862565b604082019050919050565b600060208201905081810360008301526148ed816148b1565b9050919050565b60006148ff826134dc565b915061490a836134dc565b92508282101561491d5761491c614690565b5b828203905092915050565b6000614933826134dc565b915061493e836134dc565b9250827fffffffffffffffffffffffffffffffffffffffffffffffffffffffffffffffff0382111561497357614972614690565b5b828201905092915050565b7f4552433732313a20617070726f766520746f2063616c6c657200000000000000600082015250565b60006149b460198361342c565b91506149bf8261497e565b602082019050919050565b600060208201905081810360008301526149e3816149a7565b9050919050565b7f4552433732313a207472616e7366657220746f206e6f6e20455243373231526560008201527f63656976657220696d706c656d656e7465720000000000000000000000000000602082015250565b6000614a4660328361342c565b9150614a51826149ea565b604082019050919050565b60006020820190508181036000830152614a7581614a39565b9050919050565b60006060820190508181036000830152614a968186613481565b9050614aa56020830185613571565b8181036040830152614ab78184613481565b9050949350505050565b7f4552433732314d657461646174613a2055524920717565727920666f72206e6f60008201527f6e6578697374656e7420746f6b656e0000000000000000000000000000000000602082015250565b6000614b1d602f8361342c565b9150614b2882614ac1565b604082019050919050565b60006020820190508181036000830152614b4c81614b10565b9050919050565b7f4e487b7100000000000000000000000000000000000000000000000000000000600052601260045260246000fd5b6000614b8d826134dc565b9150614b98836134dc565b925082614ba857614ba7614b53565b5b828204905092915050565b6000614bbe826134dc565b9150614bc9836134dc565b925082614bd957614bd8614b53565b5b828206905092915050565b60006080820190508181036000830152614bfe8187613481565b90508181036020830152614c128186613481565b90508181036040830152614c268185613481565b9050614c3560608301846138b2565b95945050505050565b6000614c49826134dc565b9150614c54836134dc565b9250817fffffffffffffffffffffffffffffffffffffffffffffffffffffffffffffffff0483118215151615614c8d57614c8c614690565b5b828202905092915050565b7f45524337323155524953746f726167653a2055524920736574206f66206e6f6e60008201527f6578697374656e7420746f6b656e000000000000000000000000000000000000602082015250565b6000614cf4602e8361342c565b9150614cff82614c98565b604082019050919050565b60006020820190508181036000830152614d2381614ce7565b9050919050565b60006060820190508181036000830152614d448186613481565b9050614d5360208301856138b2565b8181036040830152614d658184613481565b9050949350505050565b600081519050919050565b600082825260208201905092915050565b6000614d9682614d6f565b614da08185614d7a565b9350614db081856020860161343d565b614db981613470565b840191505092915050565b6000608082019050614dd96000830187613571565b614de66020830186613571565b614df360408301856138b2565b8181036060830152614e058184614d8b565b905095945050505050565b600081519050614e1f81613392565b92915050565b600060208284031215614e3b57614e3a61335c565b5b6000614e4984828501614e10565b91505092915050565b7f4552433732313a206d696e7420746f20746865207a65726f2061646472657373600082015250565b6000614e8860208361342c565b9150614e9382614e52565b602082019050919050565b60006020820190508181036000830152614eb781614e7b565b9050919050565b7f4552433732313a20746f6b656e20616c7265616479206d696e74656400000000600082015250565b6000614ef4601c8361342c565b9150614eff82614ebe565b602082019050919050565b60006020820190508181036000830152614f2381614ee7565b905091905056fe0a2d2d2d2d2d2d2d2d2d2d2d2d2d2d2d2d2d2d2d2d2d2d2d2d2d2d2d2d2d2d2d2d2d2d2d2d2d2d2d2d2d2d2d2d2d2d2d2d2d2d2d2d2d2d2d2d5265676973746572696e672025732e2573206f6e2074686520636f6e7472616374207769746820746f6b656e49442025642d2d2d2d2d2d2d2d2d2d2d2d2d2d2d2d2d2d2d2d2d2d2d2d2d2d2d2d2d2d2d2d2d2d2d2d2d2d2d2d2d2d2d2d2d2d2d2d2d2d2d2d2d2d2d2d0a4142434445464748494a4b4c4d4e4f505152535455565758595a6162636465666768696a6b6c6d6e6f707172737475767778797a303132333435363738392b2fa2646970667358221220543f5f55f9d844cc7a6dbade8aa55f58c34e2914ed3f5fb1e80524a0fe6b90fd64736f6c634300080e00333c73766720786d6c6e733d22687474703a2f2f7777772e77332e6f72672f323030302f7376672220786d6c6e733a786c696e6b3d22687474703a2f2f7777772e77332e6f72672f313939392f786c696e6b2220786d6c3a73706163653d227072657365727665222076696577426f783d2230203020343438203434382220793d22302220783d2230222076657273696f6e3d22312e312220656e61626c652d6261636b67726f756e643d226e657720302030203434372e393932203434372e393932223e3c646566733e3c6c696e6561724772616469656e742069643d2261223e3c73746f70206f66667365743d2230222073746f702d636f6c6f723d2223303030222073746f702d6f7061636974793d2231222f3e3c73746f70206f66667365743d2231222073746f702d636f6c6f723d2223303030222073746f702d6f7061636974793d2230222f3e3c2f6c696e6561724772616469656e743e3c6c696e6561724772616469656e74206772616469656e74556e6974733d227573657253706163654f6e557365222079323d223430332e39222078323d223333342e32222079313d223430332e39222078313d223132372e312220786c696e6b3a687265663d222361222f3e3c2f646566733e3c6720636f6c6f722d696e746572706f6c6174696f6e3d22735247422220636f6c6f722d72656e646572696e673d226175746f2220696d6167652d72656e646572696e673d226175746f222073686170652d72656e646572696e673d226175746f223e3c7061746820643d224d32323420313036382e3361313736203137362030203020302030203335326339372030203137362d37382e39203137362d313736732d37392d3137362d3137362d3137367a222066696c6c3d222335613333393222207472616e73666f726d3d226d6174726978282e383032313620302030202e38303231362034352e37202d3830342e3629222f3e3c7061746820643d224d32323420313038342e336131363020313630203020312031203020333230632d38382e3520302d3136302d37312e352d3136302d3136307337312e352d313630203136302d3136307a222066696c6c3d222332396133656322207472616e73666f726d3d226d6174726978282e383032313620302030202e38303231362034352e37202d3830342e3629222f3e3c7061746820643d224d32323420313039362e336131343820313438203020312031203020323936632d38312e3920302d3134382d36362e322d3134382d3134387336362e312d313438203134382d3134387a222066696c6c3d222333636465663622207472616e73666f726d3d226d6174726978282e383032313620302030202e38303231362034352e37202d3830342e3629222f3e3c7061746820643d224d32323420313133322e336131313220313132203020312031203020323234632d363220302d3131322d35302d3131322d3131327335302d313132203131322d3131327a222066696c6c3d222366666622207472616e73666f726d3d226d6174726978282e383032313620302030202e38303231362034352e37202d3830342e3629222f3e3c7061746820643d224d32323420313134342e336131303020313030203020312031202e32203139392e3920313030203130302030203020312d2e332d3139392e397a222066696c6c3d222365626665666622207472616e73666f726d3d226d6174726978282e383032313620302030202e38303231362034352e37202d3830342e3629222f3e3c7061746820643d224d32323420313231322e33632d31372e3620302d33322031342e342d33322033327331342e342033322033322033326331372e3520302033322d31342e342033322d3332732d31342e352d33322d33322d33327a222066696c6c3d222335613333393222207472616e73666f726d3d226d6174726978282e383032313620302030202e38303231362034352e37202d3830342e3629222f3e3c7061746820643d224d32323420313232382e346131362031362030203120312d313620313663302d3920372d31362031362d31367a222066696c6c3d222365653734366322207472616e73666f726d3d226d6174726978282e383032313620302030202e38303231362034352e37202d3830342e3629222f3e3c672066696c6c3d2223356133333932223e3c7061746820643d224d32313620313032302e3476313434683136762d3134347a4d32313620313332342e3376313434683136762d3134347a4d33303420313233362e3376313668313434762d31367a4d3020313233362e3376313668313434762d31367a22207472616e73666f726d3d226d6174726978282e383032313620302030202e38303231362034352e37202d3830342e3629222f3e3c2f673e3c7061746820643d224d32323420313233342e346131302031302030203120312d313020313063302d352e3720342e342d31302031302d31307a222066696c6c3d222366623937363122207472616e73666f726d3d226d6174726978282e383032313620302030202e38303231362034352e37202d3830342e3629222f3e3c672066696c6c3d2223356133333932223e3c7061746820643d224d3235312e3420313131392e36613820382030203020302d312e332031352e3720313132203131322030203020312038322e382038322e38203820382030203120302031352e362d332e3720313238203132382030203020302d39342e372d39342e36203820382030203020302d322e342d2e327a4d3139362e3220313131392e3661313238203132382030203020302d39362e372039342e36203820382030203120302031352e3620332e3820313132203131322030203020312038322e372d38322e36203820382030203020302d312e362d31352e387a4d3334302e3820313236342e33613820382030203020302d3820362e3320313132203131322030203020312d38322e362038322e362038203820302031203020332e372031352e3520313238203132382030203020302039342e352d39342e34203820382030203020302d372e362d31307a4d3130362e382031323634613820382030203020302d372e3320313020313238203132382030203020302039342e352039342e372038203820302030203020332e382d31352e3520313132203131322030203020312d38322e372d38322e39203820382030203020302d382e332d362e327a22207472616e73666f726d3d226d6174726978282e383032313620302030202e38303231362034352e37202d3830342e3629222f3e3c2f673e3c2f673e3c7465787420793d223431382e322220783d223233302e3922207374796c653d226c696e652d6865696768743a312e32352220786d6c3a73706163653d2270726573657276652220666f6e742d7765696768743d223730302220666f6e742d73697a653d2234302220666f6e742d66616d696c793d2248797065727370616365222066696c6c2d6f7061636974793d2231222066696c6c3d222366623937363122207374726f6b653d222365653663366322207374726f6b652d6f7061636974793d2231223e3c747370616e207374796c653d22746578742d616c69676e3a63656e7465722220793d223431382e322220783d223233302e392220666f6e742d7374796c653d226e6f726d616c2220666f6e742d76617269616e743d226e6f726d616c2220666f6e742d7765696768743d223730302220666f6e742d737472657463683d226e6f726d616c2220666f6e742d66616d696c793d22417269616c20426c61636b2220746578742d616e63686f723d226d6964646c65222066696c6c2d6f7061636974793d2231222066696c6c3d222366623937363122207374726f6b653d222365653663366322207374726f6b652d6f7061636974793d2231223e",
  "linkReferences": {},
  "deployedLinkReferences": {}
}